{
  "_format": "hh-sol-artifact-1",
  "contractName": "MyNFT",
  "sourceName": "contracts/MyNFT.sol",
  "abi": [
    {
      "inputs": [
        {
          "internalType": "address",
          "name": "initialOwner",
          "type": "address"
        }
      ],
      "stateMutability": "nonpayable",
      "type": "constructor"
    },
    {
      "inputs": [
        {
          "internalType": "address",
          "name": "sender",
          "type": "address"
        },
        {
          "internalType": "uint256",
          "name": "tokenId",
          "type": "uint256"
        },
        {
          "internalType": "address",
          "name": "owner",
          "type": "address"
        }
      ],
      "name": "ERC721IncorrectOwner",
      "type": "error"
    },
    {
      "inputs": [
        {
          "internalType": "address",
          "name": "operator",
          "type": "address"
        },
        {
          "internalType": "uint256",
          "name": "tokenId",
          "type": "uint256"
        }
      ],
      "name": "ERC721InsufficientApproval",
      "type": "error"
    },
    {
      "inputs": [
        {
          "internalType": "address",
          "name": "approver",
          "type": "address"
        }
      ],
      "name": "ERC721InvalidApprover",
      "type": "error"
    },
    {
      "inputs": [
        {
          "internalType": "address",
          "name": "operator",
          "type": "address"
        }
      ],
      "name": "ERC721InvalidOperator",
      "type": "error"
    },
    {
      "inputs": [
        {
          "internalType": "address",
          "name": "owner",
          "type": "address"
        }
      ],
      "name": "ERC721InvalidOwner",
      "type": "error"
    },
    {
      "inputs": [
        {
          "internalType": "address",
          "name": "receiver",
          "type": "address"
        }
      ],
      "name": "ERC721InvalidReceiver",
      "type": "error"
    },
    {
      "inputs": [
        {
          "internalType": "address",
          "name": "sender",
          "type": "address"
        }
      ],
      "name": "ERC721InvalidSender",
      "type": "error"
    },
    {
      "inputs": [
        {
          "internalType": "uint256",
          "name": "tokenId",
          "type": "uint256"
        }
      ],
      "name": "ERC721NonexistentToken",
      "type": "error"
    },
    {
      "inputs": [
        {
          "internalType": "address",
          "name": "owner",
          "type": "address"
        }
      ],
      "name": "OwnableInvalidOwner",
      "type": "error"
    },
    {
      "inputs": [
        {
          "internalType": "address",
          "name": "account",
          "type": "address"
        }
      ],
      "name": "OwnableUnauthorizedAccount",
      "type": "error"
    },
    {
      "anonymous": false,
      "inputs": [
        {
          "indexed": true,
          "internalType": "address",
          "name": "owner",
          "type": "address"
        },
        {
          "indexed": true,
          "internalType": "address",
          "name": "approved",
          "type": "address"
        },
        {
          "indexed": true,
          "internalType": "uint256",
          "name": "tokenId",
          "type": "uint256"
        }
      ],
      "name": "Approval",
      "type": "event"
    },
    {
      "anonymous": false,
      "inputs": [
        {
          "indexed": true,
          "internalType": "address",
          "name": "owner",
          "type": "address"
        },
        {
          "indexed": true,
          "internalType": "address",
          "name": "operator",
          "type": "address"
        },
        {
          "indexed": false,
          "internalType": "bool",
          "name": "approved",
          "type": "bool"
        }
      ],
      "name": "ApprovalForAll",
      "type": "event"
    },
    {
      "anonymous": false,
      "inputs": [
        {
          "indexed": false,
          "internalType": "uint256",
          "name": "_fromTokenId",
          "type": "uint256"
        },
        {
          "indexed": false,
          "internalType": "uint256",
          "name": "_toTokenId",
          "type": "uint256"
        }
      ],
      "name": "BatchMetadataUpdate",
      "type": "event"
    },
    {
      "anonymous": false,
      "inputs": [
        {
          "indexed": false,
          "internalType": "uint256",
          "name": "_tokenId",
          "type": "uint256"
        }
      ],
      "name": "MetadataUpdate",
      "type": "event"
    },
    {
      "anonymous": false,
      "inputs": [
        {
          "indexed": true,
          "internalType": "address",
          "name": "recipient",
          "type": "address"
        },
        {
          "indexed": true,
          "internalType": "uint256",
          "name": "tokenId",
          "type": "uint256"
        },
        {
          "indexed": false,
          "internalType": "string",
          "name": "tokenURI",
          "type": "string"
        }
      ],
      "name": "Minted",
      "type": "event"
    },
    {
      "anonymous": false,
      "inputs": [
        {
          "indexed": true,
          "internalType": "address",
          "name": "previousOwner",
          "type": "address"
        },
        {
          "indexed": true,
          "internalType": "address",
          "name": "newOwner",
          "type": "address"
        }
      ],
      "name": "OwnershipTransferred",
      "type": "event"
    },
    {
      "anonymous": false,
      "inputs": [
        {
          "indexed": false,
          "internalType": "uint256",
          "name": "newCounter",
          "type": "uint256"
        }
      ],
      "name": "TokenCounterUpdated",
      "type": "event"
    },
    {
      "anonymous": false,
      "inputs": [
        {
          "indexed": true,
          "internalType": "address",
          "name": "from",
          "type": "address"
        },
        {
          "indexed": true,
          "internalType": "address",
          "name": "to",
          "type": "address"
        },
        {
          "indexed": true,
          "internalType": "uint256",
          "name": "tokenId",
          "type": "uint256"
        }
      ],
      "name": "Transfer",
      "type": "event"
    },
    {
      "inputs": [
        {
          "internalType": "address",
          "name": "to",
          "type": "address"
        },
        {
          "internalType": "uint256",
          "name": "tokenId",
          "type": "uint256"
        }
      ],
      "name": "approve",
      "outputs": [],
      "stateMutability": "nonpayable",
      "type": "function"
    },
    {
      "inputs": [
        {
          "internalType": "address",
          "name": "owner",
          "type": "address"
        }
      ],
      "name": "balanceOf",
      "outputs": [
        {
          "internalType": "uint256",
          "name": "",
          "type": "uint256"
        }
      ],
      "stateMutability": "view",
      "type": "function"
    },
    {
      "inputs": [
        {
          "internalType": "uint256",
          "name": "tokenId",
          "type": "uint256"
        }
      ],
      "name": "getApproved",
      "outputs": [
        {
          "internalType": "address",
          "name": "",
          "type": "address"
        }
      ],
      "stateMutability": "view",
      "type": "function"
    },
    {
      "inputs": [
        {
          "internalType": "address",
          "name": "owner",
          "type": "address"
        },
        {
          "internalType": "address",
          "name": "operator",
          "type": "address"
        }
      ],
      "name": "isApprovedForAll",
      "outputs": [
        {
          "internalType": "bool",
          "name": "",
          "type": "bool"
        }
      ],
      "stateMutability": "view",
      "type": "function"
    },
    {
      "inputs": [
        {
          "internalType": "address",
          "name": "recipient",
          "type": "address"
        },
        {
          "internalType": "string",
          "name": "tokenURI",
          "type": "string"
        }
      ],
      "name": "mintNFT",
      "outputs": [
        {
          "internalType": "uint256",
          "name": "",
          "type": "uint256"
        }
      ],
      "stateMutability": "nonpayable",
      "type": "function"
    },
    {
      "inputs": [],
      "name": "name",
      "outputs": [
        {
          "internalType": "string",
          "name": "",
          "type": "string"
        }
      ],
      "stateMutability": "view",
      "type": "function"
    },
    {
      "inputs": [],
      "name": "owner",
      "outputs": [
        {
          "internalType": "address",
          "name": "",
          "type": "address"
        }
      ],
      "stateMutability": "view",
      "type": "function"
    },
    {
      "inputs": [
        {
          "internalType": "uint256",
          "name": "tokenId",
          "type": "uint256"
        }
      ],
      "name": "ownerOf",
      "outputs": [
        {
          "internalType": "address",
          "name": "",
          "type": "address"
        }
      ],
      "stateMutability": "view",
      "type": "function"
    },
    {
      "inputs": [],
      "name": "renounceOwnership",
      "outputs": [],
      "stateMutability": "nonpayable",
      "type": "function"
    },
    {
      "inputs": [
        {
          "internalType": "address",
          "name": "from",
          "type": "address"
        },
        {
          "internalType": "address",
          "name": "to",
          "type": "address"
        },
        {
          "internalType": "uint256",
          "name": "tokenId",
          "type": "uint256"
        }
      ],
      "name": "safeTransferFrom",
      "outputs": [],
      "stateMutability": "nonpayable",
      "type": "function"
    },
    {
      "inputs": [
        {
          "internalType": "address",
          "name": "from",
          "type": "address"
        },
        {
          "internalType": "address",
          "name": "to",
          "type": "address"
        },
        {
          "internalType": "uint256",
          "name": "tokenId",
          "type": "uint256"
        },
        {
          "internalType": "bytes",
          "name": "data",
          "type": "bytes"
        }
      ],
      "name": "safeTransferFrom",
      "outputs": [],
      "stateMutability": "nonpayable",
      "type": "function"
    },
    {
      "inputs": [
        {
          "internalType": "address",
          "name": "operator",
          "type": "address"
        },
        {
          "internalType": "bool",
          "name": "approved",
          "type": "bool"
        }
      ],
      "name": "setApprovalForAll",
      "outputs": [],
      "stateMutability": "nonpayable",
      "type": "function"
    },
    {
      "inputs": [
        {
          "internalType": "bytes4",
          "name": "interfaceId",
          "type": "bytes4"
        }
      ],
      "name": "supportsInterface",
      "outputs": [
        {
          "internalType": "bool",
          "name": "",
          "type": "bool"
        }
      ],
      "stateMutability": "view",
      "type": "function"
    },
    {
      "inputs": [],
      "name": "symbol",
      "outputs": [
        {
          "internalType": "string",
          "name": "",
          "type": "string"
        }
      ],
      "stateMutability": "view",
      "type": "function"
    },
    {
      "inputs": [],
      "name": "tokenIdCounter",
      "outputs": [
        {
          "internalType": "uint256",
          "name": "",
          "type": "uint256"
        }
      ],
      "stateMutability": "view",
      "type": "function"
    },
    {
      "inputs": [
        {
          "internalType": "uint256",
          "name": "tokenId",
          "type": "uint256"
        }
      ],
      "name": "tokenURI",
      "outputs": [
        {
          "internalType": "string",
          "name": "",
          "type": "string"
        }
      ],
      "stateMutability": "view",
      "type": "function"
    },
    {
      "inputs": [
        {
          "internalType": "address",
          "name": "from",
          "type": "address"
        },
        {
          "internalType": "address",
          "name": "to",
          "type": "address"
        },
        {
          "internalType": "uint256",
          "name": "tokenId",
          "type": "uint256"
        }
      ],
      "name": "transferFrom",
      "outputs": [],
      "stateMutability": "nonpayable",
      "type": "function"
    },
    {
      "inputs": [
        {
          "internalType": "address",
          "name": "newOwner",
          "type": "address"
        }
      ],
      "name": "transferOwnership",
      "outputs": [],
      "stateMutability": "nonpayable",
      "type": "function"
    }
  ],
  "bytecode": "0x60806040523480156200001157600080fd5b5060405162002d9b38038062002d9b833981810160405281019062000037919062000290565b806040518060400160405280600581526020017f4d794e46540000000000000000000000000000000000000000000000000000008152506040518060400160405280600481526020017f4d4e4654000000000000000000000000000000000000000000000000000000008152508160009081620000b591906200053c565b508060019081620000c791906200053c565b505050600073ffffffffffffffffffffffffffffffffffffffff168173ffffffffffffffffffffffffffffffffffffffff16036200013f5760006040517f1e4fbdf700000000000000000000000000000000000000000000000000000000815260040162000136919062000634565b60405180910390fd5b62000150816200016060201b60201c565b5060006008819055505062000651565b6000600760009054906101000a900473ffffffffffffffffffffffffffffffffffffffff16905081600760006101000a81548173ffffffffffffffffffffffffffffffffffffffff021916908373ffffffffffffffffffffffffffffffffffffffff1602179055508173ffffffffffffffffffffffffffffffffffffffff168173ffffffffffffffffffffffffffffffffffffffff167f8be0079c531659141344cd1fd0a4f28419497f9722a3daafe3b4186f6b6457e060405160405180910390a35050565b600080fd5b600073ffffffffffffffffffffffffffffffffffffffff82169050919050565b600062000258826200022b565b9050919050565b6200026a816200024b565b81146200027657600080fd5b50565b6000815190506200028a816200025f565b92915050565b600060208284031215620002a957620002a862000226565b5b6000620002b98482850162000279565b91505092915050565b600081519050919050565b7f4e487b7100000000000000000000000000000000000000000000000000000000600052604160045260246000fd5b7f4e487b7100000000000000000000000000000000000000000000000000000000600052602260045260246000fd5b600060028204905060018216806200034457607f821691505b6020821081036200035a5762000359620002fc565b5b50919050565b60008190508160005260206000209050919050565b60006020601f8301049050919050565b600082821b905092915050565b600060088302620003c47fffffffffffffffffffffffffffffffffffffffffffffffffffffffffffffffff8262000385565b620003d0868362000385565b95508019841693508086168417925050509392505050565b6000819050919050565b6000819050919050565b60006200041d620004176200041184620003e8565b620003f2565b620003e8565b9050919050565b6000819050919050565b6200043983620003fc565b62000451620004488262000424565b84845462000392565b825550505050565b600090565b6200046862000459565b620004758184846200042e565b505050565b5b818110156200049d57620004916000826200045e565b6001810190506200047b565b5050565b601f821115620004ec57620004b68162000360565b620004c18462000375565b81016020851015620004d1578190505b620004e9620004e08562000375565b8301826200047a565b50505b505050565b600082821c905092915050565b60006200051160001984600802620004f1565b1980831691505092915050565b60006200052c8383620004fe565b9150826002028217905092915050565b6200054782620002c2565b67ffffffffffffffff811115620005635762000562620002cd565b5b6200056f82546200032b565b6200057c828285620004a1565b600060209050601f831160018114620005b457600084156200059f578287015190505b620005ab85826200051e565b8655506200061b565b601f198416620005c48662000360565b60005b82811015620005ee57848901518255600182019150602085019450602081019050620005c7565b868310156200060e57848901516200060a601f891682620004fe565b8355505b6001600288020188555050505b505050505050565b6200062e816200024b565b82525050565b60006020820190506200064b600083018462000623565b92915050565b61273a80620006616000396000f3fe608060405234801561001057600080fd5b50600436106101165760003560e01c80638da5cb5b116100a2578063b88d4fde11610071578063b88d4fde146102cd578063c87b56dd146102e9578063e985e9c514610319578063eacabe1414610349578063f2fde38b1461037957610116565b80638da5cb5b1461025757806395d89b411461027557806398bdf6f514610293578063a22cb465146102b157610116565b806323b872dd116100e957806323b872dd146101b557806342842e0e146101d15780636352211e146101ed57806370a082311461021d578063715018a61461024d57610116565b806301ffc9a71461011b57806306fdde031461014b578063081812fc14610169578063095ea7b314610199575b600080fd5b61013560048036038101906101309190611b92565b610395565b6040516101429190611bda565b60405180910390f35b6101536103f6565b6040516101609190611c85565b60405180910390f35b610183600480360381019061017e9190611cdd565b610488565b6040516101909190611d4b565b60405180910390f35b6101b360048036038101906101ae9190611d92565b6104a4565b005b6101cf60048036038101906101ca9190611dd2565b6104ba565b005b6101eb60048036038101906101e69190611dd2565b6105bc565b005b61020760048036038101906102029190611cdd565b6105dc565b6040516102149190611d4b565b60405180910390f35b61023760048036038101906102329190611e25565b6105ee565b6040516102449190611e61565b60405180910390f35b6102556106a8565b005b61025f6106bc565b60405161026c9190611d4b565b60405180910390f35b61027d6106e6565b60405161028a9190611c85565b60405180910390f35b61029b610778565b6040516102a89190611e61565b60405180910390f35b6102cb60048036038101906102c69190611ea8565b61077e565b005b6102e760048036038101906102e2919061201d565b610794565b005b61030360048036038101906102fe9190611cdd565b6107b9565b6040516103109190611c85565b60405180910390f35b610333600480360381019061032e91906120a0565b6108cc565b6040516103409190611bda565b60405180910390f35b610363600480360381019061035e9190612181565b610960565b6040516103709190611e61565b60405180910390f35b610393600480360381019061038e9190611e25565b610a2f565b005b6000634906490660e01b7bffffffffffffffffffffffffffffffffffffffffffffffffffffffff1916827bffffffffffffffffffffffffffffffffffffffffffffffffffffffff191614806103ef57506103ee82610ab5565b5b9050919050565b6060600080546104059061220c565b80601f01602080910402602001604051908101604052809291908181526020018280546104319061220c565b801561047e5780601f106104535761010080835404028352916020019161047e565b820191906000526020600020905b81548152906001019060200180831161046157829003601f168201915b5050505050905090565b600061049382610b97565b5061049d82610c1f565b9050919050565b6104b682826104b1610c5c565b610c64565b5050565b600073ffffffffffffffffffffffffffffffffffffffff168273ffffffffffffffffffffffffffffffffffffffff160361052c5760006040517f64a0ae920000000000000000000000000000000000000000000000000000000081526004016105239190611d4b565b60405180910390fd5b6000610540838361053b610c5c565b610c76565b90508373ffffffffffffffffffffffffffffffffffffffff168173ffffffffffffffffffffffffffffffffffffffff16146105b6578382826040517f64283d7b0000000000000000000000000000000000000000000000000000000081526004016105ad9392919061223d565b60405180910390fd5b50505050565b6105d783838360405180602001604052806000815250610794565b505050565b60006105e782610b97565b9050919050565b60008073ffffffffffffffffffffffffffffffffffffffff168273ffffffffffffffffffffffffffffffffffffffff16036106615760006040517f89c62b640000000000000000000000000000000000000000000000000000000081526004016106589190611d4b565b60405180910390fd5b600360008373ffffffffffffffffffffffffffffffffffffffff1673ffffffffffffffffffffffffffffffffffffffff168152602001908152602001600020549050919050565b6106b0610e90565b6106ba6000610f17565b565b6000600760009054906101000a900473ffffffffffffffffffffffffffffffffffffffff16905090565b6060600180546106f59061220c565b80601f01602080910402602001604051908101604052809291908181526020018280546107219061220c565b801561076e5780601f106107435761010080835404028352916020019161076e565b820191906000526020600020905b81548152906001019060200180831161075157829003601f168201915b5050505050905090565b60085481565b610790610789610c5c565b8383610fdd565b5050565b61079f8484846104ba565b6107b36107aa610c5c565b8585858561114c565b50505050565b60606107c482610b97565b5060006006600084815260200190815260200160002080546107e59061220c565b80601f01602080910402602001604051908101604052809291908181526020018280546108119061220c565b801561085e5780601f106108335761010080835404028352916020019161085e565b820191906000526020600020905b81548152906001019060200180831161084157829003601f168201915b50505050509050600061086f6112fd565b905060008151036108845781925050506108c7565b6000825111156108b95780826040516020016108a19291906122b0565b604051602081830303815290604052925050506108c7565b6108c284611314565b925050505b919050565b6000600560008473ffffffffffffffffffffffffffffffffffffffff1673ffffffffffffffffffffffffffffffffffffffff16815260200190815260200160002060008373ffffffffffffffffffffffffffffffffffffffff1673ffffffffffffffffffffffffffffffffffffffff16815260200190815260200160002060009054906101000a900460ff16905092915050565b600061096a610e90565b6000600854905061097b848261137d565b610985818461139b565b6008600081548092919061099890612303565b9190505550808473ffffffffffffffffffffffffffffffffffffffff167fe7cd4ce7f2a465edc730269a1305e8a48bad821e8fb7e152ec413829c01a53c4856040516109e49190611c85565b60405180910390a37f3ae6b2cc8fcded537f34edcadf5018e311aaf6e0e103577c2b74bdaa73f93e37600854604051610a1d9190611e61565b60405180910390a18091505092915050565b610a37610e90565b600073ffffffffffffffffffffffffffffffffffffffff168173ffffffffffffffffffffffffffffffffffffffff1603610aa95760006040517f1e4fbdf7000000000000000000000000000000000000000000000000000000008152600401610aa09190611d4b565b60405180910390fd5b610ab281610f17565b50565b60007f80ac58cd000000000000000000000000000000000000000000000000000000007bffffffffffffffffffffffffffffffffffffffffffffffffffffffff1916827bffffffffffffffffffffffffffffffffffffffffffffffffffffffff19161480610b8057507f5b5e139f000000000000000000000000000000000000000000000000000000007bffffffffffffffffffffffffffffffffffffffffffffffffffffffff1916827bffffffffffffffffffffffffffffffffffffffffffffffffffffffff1916145b80610b905750610b8f826113f7565b5b9050919050565b600080610ba383611461565b9050600073ffffffffffffffffffffffffffffffffffffffff168173ffffffffffffffffffffffffffffffffffffffff1603610c1657826040517f7e273289000000000000000000000000000000000000000000000000000000008152600401610c0d9190611e61565b60405180910390fd5b80915050919050565b60006004600083815260200190815260200160002060009054906101000a900473ffffffffffffffffffffffffffffffffffffffff169050919050565b600033905090565b610c71838383600161149e565b505050565b600080610c8284611461565b9050600073ffffffffffffffffffffffffffffffffffffffff168373ffffffffffffffffffffffffffffffffffffffff1614610cc457610cc3818486611663565b5b600073ffffffffffffffffffffffffffffffffffffffff168173ffffffffffffffffffffffffffffffffffffffff1614610d5557610d0660008560008061149e565b6001600360008373ffffffffffffffffffffffffffffffffffffffff1673ffffffffffffffffffffffffffffffffffffffff168152602001908152602001600020600082825403925050819055505b600073ffffffffffffffffffffffffffffffffffffffff168573ffffffffffffffffffffffffffffffffffffffff1614610dd8576001600360008773ffffffffffffffffffffffffffffffffffffffff1673ffffffffffffffffffffffffffffffffffffffff168152602001908152602001600020600082825401925050819055505b846002600086815260200190815260200160002060006101000a81548173ffffffffffffffffffffffffffffffffffffffff021916908373ffffffffffffffffffffffffffffffffffffffff160217905550838573ffffffffffffffffffffffffffffffffffffffff168273ffffffffffffffffffffffffffffffffffffffff167fddf252ad1be2c89b69c2b068fc378daa952ba7f163c4a11628f55a4df523b3ef60405160405180910390a4809150509392505050565b610e98610c5c565b73ffffffffffffffffffffffffffffffffffffffff16610eb66106bc565b73ffffffffffffffffffffffffffffffffffffffff1614610f1557610ed9610c5c565b6040517f118cdaa7000000000000000000000000000000000000000000000000000000008152600401610f0c9190611d4b565b60405180910390fd5b565b6000600760009054906101000a900473ffffffffffffffffffffffffffffffffffffffff16905081600760006101000a81548173ffffffffffffffffffffffffffffffffffffffff021916908373ffffffffffffffffffffffffffffffffffffffff1602179055508173ffffffffffffffffffffffffffffffffffffffff168173ffffffffffffffffffffffffffffffffffffffff167f8be0079c531659141344cd1fd0a4f28419497f9722a3daafe3b4186f6b6457e060405160405180910390a35050565b600073ffffffffffffffffffffffffffffffffffffffff168273ffffffffffffffffffffffffffffffffffffffff160361104e57816040517f5b08ba180000000000000000000000000000000000000000000000000000000081526004016110459190611d4b565b60405180910390fd5b80600560008573ffffffffffffffffffffffffffffffffffffffff1673ffffffffffffffffffffffffffffffffffffffff16815260200190815260200160002060008473ffffffffffffffffffffffffffffffffffffffff1673ffffffffffffffffffffffffffffffffffffffff16815260200190815260200160002060006101000a81548160ff0219169083151502179055508173ffffffffffffffffffffffffffffffffffffffff168373ffffffffffffffffffffffffffffffffffffffff167f17307eab39ab6107e8899845ad3d59bd9653f200f220920489ca2b5937696c318360405161113f9190611bda565b60405180910390a3505050565b60008373ffffffffffffffffffffffffffffffffffffffff163b11156112f6578273ffffffffffffffffffffffffffffffffffffffff1663150b7a02868685856040518563ffffffff1660e01b81526004016111ab94939291906123a0565b6020604051808303816000875af19250505080156111e757506040513d601f19601f820116820180604052508101906111e49190612401565b60015b61126b573d8060008114611217576040519150601f19603f3d011682016040523d82523d6000602084013e61121c565b606091505b50600081510361126357836040517f64a0ae9200000000000000000000000000000000000000000000000000000000815260040161125a9190611d4b565b60405180910390fd5b805181602001fd5b63150b7a0260e01b7bffffffffffffffffffffffffffffffffffffffffffffffffffffffff1916817bffffffffffffffffffffffffffffffffffffffffffffffffffffffff1916146112f457836040517f64a0ae920000000000000000000000000000000000000000000000000000000081526004016112eb9190611d4b565b60405180910390fd5b505b5050505050565b606060405180602001604052806000815250905090565b606061131f82610b97565b50600061132a6112fd565b9050600081511161134a5760405180602001604052806000815250611375565b8061135484611727565b6040516020016113659291906122b0565b6040516020818303038152906040525b915050919050565b6113978282604051806020016040528060008152506117f5565b5050565b806006600084815260200190815260200160002090816113bb91906125da565b507ff8e1a15aba9398e019f0b49df1a4fde98ee17ae345cb5f6b5e2c27f5033e8ce7826040516113eb9190611e61565b60405180910390a15050565b60007f01ffc9a7000000000000000000000000000000000000000000000000000000007bffffffffffffffffffffffffffffffffffffffffffffffffffffffff1916827bffffffffffffffffffffffffffffffffffffffffffffffffffffffff1916149050919050565b60006002600083815260200190815260200160002060009054906101000a900473ffffffffffffffffffffffffffffffffffffffff169050919050565b80806114d75750600073ffffffffffffffffffffffffffffffffffffffff168273ffffffffffffffffffffffffffffffffffffffff1614155b1561160b5760006114e784610b97565b9050600073ffffffffffffffffffffffffffffffffffffffff168373ffffffffffffffffffffffffffffffffffffffff161415801561155257508273ffffffffffffffffffffffffffffffffffffffff168173ffffffffffffffffffffffffffffffffffffffff1614155b8015611565575061156381846108cc565b155b156115a757826040517fa9fbf51f00000000000000000000000000000000000000000000000000000000815260040161159e9190611d4b565b60405180910390fd5b811561160957838573ffffffffffffffffffffffffffffffffffffffff168273ffffffffffffffffffffffffffffffffffffffff167f8c5be1e5ebec7d5bd14f71427d1e84f3dd0314c0f7b2291e5b200ac8c7c3b92560405160405180910390a45b505b836004600085815260200190815260200160002060006101000a81548173ffffffffffffffffffffffffffffffffffffffff021916908373ffffffffffffffffffffffffffffffffffffffff16021790555050505050565b61166e838383611819565b61172257600073ffffffffffffffffffffffffffffffffffffffff168373ffffffffffffffffffffffffffffffffffffffff16036116e357806040517f7e2732890000000000000000000000000000000000000000000000000000000081526004016116da9190611e61565b60405180910390fd5b81816040517f177e802f0000000000000000000000000000000000000000000000000000000081526004016117199291906126ac565b60405180910390fd5b505050565b606060006001611736846118da565b01905060008167ffffffffffffffff81111561175557611754611ef2565b5b6040519080825280601f01601f1916602001820160405280156117875781602001600182028036833780820191505090505b509050600082602001820190505b6001156117ea578080600190039150507f3031323334353637383961626364656600000000000000000000000000000000600a86061a8153600a85816117de576117dd6126d5565b5b04945060008503611795575b819350505050919050565b6117ff8383611a2d565b61181461180a610c5c565b600085858561114c565b505050565b60008073ffffffffffffffffffffffffffffffffffffffff168373ffffffffffffffffffffffffffffffffffffffff16141580156118d157508273ffffffffffffffffffffffffffffffffffffffff168473ffffffffffffffffffffffffffffffffffffffff161480611892575061189184846108cc565b5b806118d057508273ffffffffffffffffffffffffffffffffffffffff166118b883610c1f565b73ffffffffffffffffffffffffffffffffffffffff16145b5b90509392505050565b600080600090507a184f03e93ff9f4daa797ed6e38ed64bf6a1f0100000000000000008310611938577a184f03e93ff9f4daa797ed6e38ed64bf6a1f010000000000000000838161192e5761192d6126d5565b5b0492506040810190505b6d04ee2d6d415b85acef81000000008310611975576d04ee2d6d415b85acef8100000000838161196b5761196a6126d5565b5b0492506020810190505b662386f26fc1000083106119a457662386f26fc10000838161199a576119996126d5565b5b0492506010810190505b6305f5e10083106119cd576305f5e10083816119c3576119c26126d5565b5b0492506008810190505b61271083106119f25761271083816119e8576119e76126d5565b5b0492506004810190505b60648310611a155760648381611a0b57611a0a6126d5565b5b0492506002810190505b600a8310611a24576001810190505b80915050919050565b600073ffffffffffffffffffffffffffffffffffffffff168273ffffffffffffffffffffffffffffffffffffffff1603611a9f5760006040517f64a0ae92000000000000000000000000000000000000000000000000000000008152600401611a969190611d4b565b60405180910390fd5b6000611aad83836000610c76565b9050600073ffffffffffffffffffffffffffffffffffffffff168173ffffffffffffffffffffffffffffffffffffffff1614611b215760006040517f73c6ac6e000000000000000000000000000000000000000000000000000000008152600401611b189190611d4b565b60405180910390fd5b505050565b6000604051905090565b600080fd5b600080fd5b60007fffffffff0000000000000000000000000000000000000000000000000000000082169050919050565b611b6f81611b3a565b8114611b7a57600080fd5b50565b600081359050611b8c81611b66565b92915050565b600060208284031215611ba857611ba7611b30565b5b6000611bb684828501611b7d565b91505092915050565b60008115159050919050565b611bd481611bbf565b82525050565b6000602082019050611bef6000830184611bcb565b92915050565b600081519050919050565b600082825260208201905092915050565b60005b83811015611c2f578082015181840152602081019050611c14565b60008484015250505050565b6000601f19601f8301169050919050565b6000611c5782611bf5565b611c618185611c00565b9350611c71818560208601611c11565b611c7a81611c3b565b840191505092915050565b60006020820190508181036000830152611c9f8184611c4c565b905092915050565b6000819050919050565b611cba81611ca7565b8114611cc557600080fd5b50565b600081359050611cd781611cb1565b92915050565b600060208284031215611cf357611cf2611b30565b5b6000611d0184828501611cc8565b91505092915050565b600073ffffffffffffffffffffffffffffffffffffffff82169050919050565b6000611d3582611d0a565b9050919050565b611d4581611d2a565b82525050565b6000602082019050611d606000830184611d3c565b92915050565b611d6f81611d2a565b8114611d7a57600080fd5b50565b600081359050611d8c81611d66565b92915050565b60008060408385031215611da957611da8611b30565b5b6000611db785828601611d7d565b9250506020611dc885828601611cc8565b9150509250929050565b600080600060608486031215611deb57611dea611b30565b5b6000611df986828701611d7d565b9350506020611e0a86828701611d7d565b9250506040611e1b86828701611cc8565b9150509250925092565b600060208284031215611e3b57611e3a611b30565b5b6000611e4984828501611d7d565b91505092915050565b611e5b81611ca7565b82525050565b6000602082019050611e766000830184611e52565b92915050565b611e8581611bbf565b8114611e9057600080fd5b50565b600081359050611ea281611e7c565b92915050565b60008060408385031215611ebf57611ebe611b30565b5b6000611ecd85828601611d7d565b9250506020611ede85828601611e93565b9150509250929050565b600080fd5b600080fd5b7f4e487b7100000000000000000000000000000000000000000000000000000000600052604160045260246000fd5b611f2a82611c3b565b810181811067ffffffffffffffff82111715611f4957611f48611ef2565b5b80604052505050565b6000611f5c611b26565b9050611f688282611f21565b919050565b600067ffffffffffffffff821115611f8857611f87611ef2565b5b611f9182611c3b565b9050602081019050919050565b82818337600083830152505050565b6000611fc0611fbb84611f6d565b611f52565b905082815260208101848484011115611fdc57611fdb611eed565b5b611fe7848285611f9e565b509392505050565b600082601f83011261200457612003611ee8565b5b8135612014848260208601611fad565b91505092915050565b6000806000806080858703121561203757612036611b30565b5b600061204587828801611d7d565b945050602061205687828801611d7d565b935050604061206787828801611cc8565b925050606085013567ffffffffffffffff81111561208857612087611b35565b5b61209487828801611fef565b91505092959194509250565b600080604083850312156120b7576120b6611b30565b5b60006120c585828601611d7d565b92505060206120d685828601611d7d565b9150509250929050565b600067ffffffffffffffff8211156120fb576120fa611ef2565b5b61210482611c3b565b9050602081019050919050565b600061212461211f846120e0565b611f52565b9050828152602081018484840111156121405761213f611eed565b5b61214b848285611f9e565b509392505050565b600082601f83011261216857612167611ee8565b5b8135612178848260208601612111565b91505092915050565b6000806040838503121561219857612197611b30565b5b60006121a685828601611d7d565b925050602083013567ffffffffffffffff8111156121c7576121c6611b35565b5b6121d385828601612153565b9150509250929050565b7f4e487b7100000000000000000000000000000000000000000000000000000000600052602260045260246000fd5b6000600282049050600182168061222457607f821691505b602082108103612237576122366121dd565b5b50919050565b60006060820190506122526000830186611d3c565b61225f6020830185611e52565b61226c6040830184611d3c565b949350505050565b600081905092915050565b600061228a82611bf5565b6122948185612274565b93506122a4818560208601611c11565b80840191505092915050565b60006122bc828561227f565b91506122c8828461227f565b91508190509392505050565b7f4e487b7100000000000000000000000000000000000000000000000000000000600052601160045260246000fd5b600061230e82611ca7565b91507fffffffffffffffffffffffffffffffffffffffffffffffffffffffffffffffff82036123405761233f6122d4565b5b600182019050919050565b600081519050919050565b600082825260208201905092915050565b60006123728261234b565b61237c8185612356565b935061238c818560208601611c11565b61239581611c3b565b840191505092915050565b60006080820190506123b56000830187611d3c565b6123c26020830186611d3c565b6123cf6040830185611e52565b81810360608301526123e18184612367565b905095945050505050565b6000815190506123fb81611b66565b92915050565b60006020828403121561241757612416611b30565b5b6000612425848285016123ec565b91505092915050565b60008190508160005260206000209050919050565b60006020601f8301049050919050565b600082821b905092915050565b6000600883026124907fffffffffffffffffffffffffffffffffffffffffffffffffffffffffffffffff82612453565b61249a8683612453565b95508019841693508086168417925050509392505050565b6000819050919050565b60006124d76124d26124cd84611ca7565b6124b2565b611ca7565b9050919050565b6000819050919050565b6124f1836124bc565b6125056124fd826124de565b848454612460565b825550505050565b600090565b61251a61250d565b6125258184846124e8565b505050565b5b818110156125495761253e600082612512565b60018101905061252b565b5050565b601f82111561258e5761255f8161242e565b61256884612443565b81016020851015612577578190505b61258b61258385612443565b83018261252a565b50505b505050565b600082821c905092915050565b60006125b160001984600802612593565b1980831691505092915050565b60006125ca83836125a0565b9150826002028217905092915050565b6125e382611bf5565b67ffffffffffffffff8111156125fc576125fb611ef2565b5b612606825461220c565b61261182828561254d565b600060209050601f8311600181146126445760008415612632578287015190505b61263c85826125be565b8655506126a4565b601f1984166126528661242e565b60005b8281101561267a57848901518255600182019150602085019450602081019050612655565b868310156126975784890151612693601f8916826125a0565b8355505b6001600288020188555050505b505050505050565b60006040820190506126c16000830185611d3c565b6126ce6020830184611e52565b9392505050565b7f4e487b7100000000000000000000000000000000000000000000000000000000600052601260045260246000fdfea26469706673582212207e200f1f05699caf8a3032989da343242f64c35528a99616706873b00431501c64736f6c63430008140033",
  "linkReferences": {},
  "deployedLinkReferences": {}
}