{
  "_format": "hh-sol-artifact-1",
  "contractName": "Marketplace",
  "sourceName": "contracts/Marketplace.sol",
  "abi": [
    {
      "anonymous": false,
      "inputs": [
        {
          "indexed": true,
          "internalType": "uint256",
          "name": "itemId",
          "type": "uint256"
        },
        {
          "indexed": true,
          "internalType": "address",
          "name": "nftContract",
          "type": "address"
        },
        {
          "indexed": false,
          "internalType": "uint256",
          "name": "tokenId",
          "type": "uint256"
        },
        {
          "indexed": false,
          "internalType": "address",
          "name": "seller",
          "type": "address"
        },
        {
          "indexed": false,
          "internalType": "uint256",
          "name": "price",
          "type": "uint256"
        }
      ],
      "name": "ItemListed",
      "type": "event"
    },
    {
      "anonymous": false,
      "inputs": [
        {
          "indexed": true,
          "internalType": "uint256",
          "name": "itemId",
          "type": "uint256"
        },
        {
          "indexed": true,
          "internalType": "address",
          "name": "buyer",
          "type": "address"
        }
      ],
      "name": "ItemSold",
      "type": "event"
    },
    {
      "inputs": [
        {
          "internalType": "uint256",
          "name": "itemId",
          "type": "uint256"
        }
      ],
      "name": "buyItem",
      "outputs": [],
      "stateMutability": "payable",
      "type": "function"
    },
    {
      "inputs": [
        {
          "internalType": "uint256",
          "name": "itemId",
          "type": "uint256"
        }
      ],
      "name": "getItem",
      "outputs": [
        {
          "components": [
            {
              "internalType": "uint256",
              "name": "tokenId",
              "type": "uint256"
            },
            {
              "internalType": "address",
              "name": "nftContract",
              "type": "address"
            },
            {
              "internalType": "address payable",
              "name": "seller",
              "type": "address"
            },
            {
              "internalType": "uint256",
              "name": "price",
              "type": "uint256"
            },
            {
              "internalType": "bool",
              "name": "isSold",
              "type": "bool"
            }
          ],
          "internalType": "struct Marketplace.Item",
          "name": "",
          "type": "tuple"
        }
      ],
      "stateMutability": "view",
      "type": "function"
    },
    {
      "inputs": [],
      "name": "itemCount",
      "outputs": [
        {
          "internalType": "uint256",
          "name": "",
          "type": "uint256"
        }
      ],
      "stateMutability": "view",
      "type": "function"
    },
    {
      "inputs": [
        {
          "internalType": "uint256",
          "name": "",
          "type": "uint256"
        }
      ],
      "name": "items",
      "outputs": [
        {
          "internalType": "uint256",
          "name": "tokenId",
          "type": "uint256"
        },
        {
          "internalType": "address",
          "name": "nftContract",
          "type": "address"
        },
        {
          "internalType": "address payable",
          "name": "seller",
          "type": "address"
        },
        {
          "internalType": "uint256",
          "name": "price",
          "type": "uint256"
        },
        {
          "internalType": "bool",
          "name": "isSold",
          "type": "bool"
        }
      ],
      "stateMutability": "view",
      "type": "function"
    },
    {
      "inputs": [
        {
          "internalType": "address",
          "name": "nftContract",
          "type": "address"
        },
        {
          "internalType": "uint256",
          "name": "tokenId",
          "type": "uint256"
        },
        {
          "internalType": "uint256",
          "name": "price",
          "type": "uint256"
        }
      ],
      "name": "listItem",
      "outputs": [],
      "stateMutability": "nonpayable",
      "type": "function"
    }
  ],
  "bytecode": "0x608060405234801561001057600080fd5b50610f21806100206000396000f3fe60806040526004361061004a5760003560e01c80633129e7731461004f5780636bfb0d011461008c57806389bfd38f146100b7578063bfb231d2146100e0578063e7fb74c714610121575b600080fd5b34801561005b57600080fd5b506100766004803603810190610071919061090c565b61013d565b6040516100839190610a2d565b60405180910390f35b34801561009857600080fd5b506100a1610245565b6040516100ae9190610a57565b60405180910390f35b3480156100c357600080fd5b506100de60048036038101906100d99190610a9e565b61024b565b005b3480156100ec57600080fd5b506101076004803603810190610102919061090c565b61058a565b604051610118959493929190610b1e565b60405180910390f35b61013b6004803603810190610136919061090c565b61060d565b005b610145610874565b600160008381526020019081526020016000206040518060a0016040529081600082015481526020016001820160009054906101000a900473ffffffffffffffffffffffffffffffffffffffff1673ffffffffffffffffffffffffffffffffffffffff1673ffffffffffffffffffffffffffffffffffffffff1681526020016002820160009054906101000a900473ffffffffffffffffffffffffffffffffffffffff1673ffffffffffffffffffffffffffffffffffffffff1673ffffffffffffffffffffffffffffffffffffffff168152602001600382015481526020016004820160009054906101000a900460ff1615151515815250509050919050565b60005481565b60008390503373ffffffffffffffffffffffffffffffffffffffff168173ffffffffffffffffffffffffffffffffffffffff16636352211e856040518263ffffffff1660e01b81526004016102a09190610a57565b602060405180830381865afa1580156102bd573d6000803e3d6000fd5b505050506040513d601f19601f820116820180604052508101906102e19190610b86565b73ffffffffffffffffffffffffffffffffffffffff1614610337576040517f08c379a000000000000000000000000000000000000000000000000000000000815260040161032e90610c36565b60405180910390fd5b6000821161037a576040517f08c379a000000000000000000000000000000000000000000000000000000000815260040161037190610ca2565b60405180910390fd5b60008081548092919061038c90610cf1565b91905055506040518060a001604052808481526020018573ffffffffffffffffffffffffffffffffffffffff1681526020013373ffffffffffffffffffffffffffffffffffffffff1681526020018381526020016000151581525060016000805481526020019081526020016000206000820151816000015560208201518160010160006101000a81548173ffffffffffffffffffffffffffffffffffffffff021916908373ffffffffffffffffffffffffffffffffffffffff16021790555060408201518160020160006101000a81548173ffffffffffffffffffffffffffffffffffffffff021916908373ffffffffffffffffffffffffffffffffffffffff1602179055506060820151816003015560808201518160040160006101000a81548160ff0219169083151502179055509050508073ffffffffffffffffffffffffffffffffffffffff166323b872dd3330866040518463ffffffff1660e01b81526004016104fd93929190610d39565b600060405180830381600087803b15801561051757600080fd5b505af115801561052b573d6000803e3d6000fd5b505050508373ffffffffffffffffffffffffffffffffffffffff166000547ffc03b4e2884c77019bbed322825d5474a29f5a432ee06b79726bb2b5b707fae585338660405161057c93929190610d70565b60405180910390a350505050565b60016020528060005260406000206000915090508060000154908060010160009054906101000a900473ffffffffffffffffffffffffffffffffffffffff16908060020160009054906101000a900473ffffffffffffffffffffffffffffffffffffffff16908060030154908060040160009054906101000a900460ff16905085565b600060016000838152602001908152602001600020905060008211801561063657506000548211155b610675576040517f08c379a000000000000000000000000000000000000000000000000000000000815260040161066c90610df3565b60405180910390fd5b806003015434146106bb576040517f08c379a00000000000000000000000000000000000000000000000000000000081526004016106b290610e5f565b60405180910390fd5b8060040160009054906101000a900460ff161561070d576040517f08c379a000000000000000000000000000000000000000000000000000000000815260040161070490610ecb565b60405180910390fd5b60018160040160006101000a81548160ff0219169083151502179055508060020160009054906101000a900473ffffffffffffffffffffffffffffffffffffffff1673ffffffffffffffffffffffffffffffffffffffff166108fc349081150290604051600060405180830381858888f19350505050158015610794573d6000803e3d6000fd5b508060010160009054906101000a900473ffffffffffffffffffffffffffffffffffffffff1673ffffffffffffffffffffffffffffffffffffffff166323b872dd303384600001546040518463ffffffff1660e01b81526004016107fa93929190610d39565b600060405180830381600087803b15801561081457600080fd5b505af1158015610828573d6000803e3d6000fd5b505050503373ffffffffffffffffffffffffffffffffffffffff16827f7de4035ced290be6d7724645d43bad448b5d8cc76743ff4da172c2d8e1caa0f560405160405180910390a35050565b6040518060a0016040528060008152602001600073ffffffffffffffffffffffffffffffffffffffff168152602001600073ffffffffffffffffffffffffffffffffffffffff168152602001600081526020016000151581525090565b600080fd5b6000819050919050565b6108e9816108d6565b81146108f457600080fd5b50565b600081359050610906816108e0565b92915050565b600060208284031215610922576109216108d1565b5b6000610930848285016108f7565b91505092915050565b610942816108d6565b82525050565b600073ffffffffffffffffffffffffffffffffffffffff82169050919050565b600061097382610948565b9050919050565b61098381610968565b82525050565b600061099482610948565b9050919050565b6109a481610989565b82525050565b60008115159050919050565b6109bf816109aa565b82525050565b60a0820160008201516109db6000850182610939565b5060208201516109ee602085018261097a565b506040820151610a01604085018261099b565b506060820151610a146060850182610939565b506080820151610a2760808501826109b6565b50505050565b600060a082019050610a4260008301846109c5565b92915050565b610a51816108d6565b82525050565b6000602082019050610a6c6000830184610a48565b92915050565b610a7b81610968565b8114610a8657600080fd5b50565b600081359050610a9881610a72565b92915050565b600080600060608486031215610ab757610ab66108d1565b5b6000610ac586828701610a89565b9350506020610ad6868287016108f7565b9250506040610ae7868287016108f7565b9150509250925092565b610afa81610968565b82525050565b610b0981610989565b82525050565b610b18816109aa565b82525050565b600060a082019050610b336000830188610a48565b610b406020830187610af1565b610b4d6040830186610b00565b610b5a6060830185610a48565b610b676080830184610b0f565b9695505050505050565b600081519050610b8081610a72565b92915050565b600060208284031215610b9c57610b9b6108d1565b5b6000610baa84828501610b71565b91505092915050565b600082825260208201905092915050565b7f596f7520617265206e6f7420746865206f776e6572206f66207468697320746f60008201527f6b656e0000000000000000000000000000000000000000000000000000000000602082015250565b6000610c20602383610bb3565b9150610c2b82610bc4565b604082019050919050565b60006020820190508181036000830152610c4f81610c13565b9050919050565b7f50726963652073686f756c642062652067726561746572207468616e20300000600082015250565b6000610c8c601e83610bb3565b9150610c9782610c56565b602082019050919050565b60006020820190508181036000830152610cbb81610c7f565b9050919050565b7f4e487b7100000000000000000000000000000000000000000000000000000000600052601160045260246000fd5b6000610cfc826108d6565b91507fffffffffffffffffffffffffffffffffffffffffffffffffffffffffffffffff8203610d2e57610d2d610cc2565b5b600182019050919050565b6000606082019050610d4e6000830186610af1565b610d5b6020830185610af1565b610d686040830184610a48565b949350505050565b6000606082019050610d856000830186610a48565b610d926020830185610af1565b610d9f6040830184610a48565b949350505050565b7f4974656d20646f6573206e6f7420657869737400000000000000000000000000600082015250565b6000610ddd601383610bb3565b9150610de882610da7565b602082019050919050565b60006020820190508181036000830152610e0c81610dd0565b9050919050565b7f496e636f72726563742070726963650000000000000000000000000000000000600082015250565b6000610e49600f83610bb3565b9150610e5482610e13565b602082019050919050565b60006020820190508181036000830152610e7881610e3c565b9050919050565b7f4974656d20616c726561647920736f6c64000000000000000000000000000000600082015250565b6000610eb5601183610bb3565b9150610ec082610e7f565b602082019050919050565b60006020820190508181036000830152610ee481610ea8565b905091905056fea2646970667358221220c255ad60698aaae946982330402a1f53bd6d0cc67b82e8f0034c23f32a618b2064736f6c63430008140033",
  "linkReferences": {},
  "deployedLinkReferences": {}
}