{
  "_format": "hh-sol-artifact-1",
  "contractName": "FeeToken",
  "sourceName": "contracts/MyToken.sol",
  "abi": [
    {
      "inputs": [
        {
          "internalType": "uint256",
          "name": "initialSupply",
          "type": "uint256"
        }
      ],
      "stateMutability": "nonpayable",
      "type": "constructor"
    },
    {
      "inputs": [
        {
          "internalType": "address",
          "name": "spender",
          "type": "address"
        },
        {
          "internalType": "uint256",
          "name": "allowance",
          "type": "uint256"
        },
        {
          "internalType": "uint256",
          "name": "needed",
          "type": "uint256"
        }
      ],
      "name": "ERC20InsufficientAllowance",
      "type": "error"
    },
    {
      "inputs": [
        {
          "internalType": "address",
          "name": "sender",
          "type": "address"
        },
        {
          "internalType": "uint256",
          "name": "balance",
          "type": "uint256"
        },
        {
          "internalType": "uint256",
          "name": "needed",
          "type": "uint256"
        }
      ],
      "name": "ERC20InsufficientBalance",
      "type": "error"
    },
    {
      "inputs": [
        {
          "internalType": "address",
          "name": "approver",
          "type": "address"
        }
      ],
      "name": "ERC20InvalidApprover",
      "type": "error"
    },
    {
      "inputs": [
        {
          "internalType": "address",
          "name": "receiver",
          "type": "address"
        }
      ],
      "name": "ERC20InvalidReceiver",
      "type": "error"
    },
    {
      "inputs": [
        {
          "internalType": "address",
          "name": "sender",
          "type": "address"
        }
      ],
      "name": "ERC20InvalidSender",
      "type": "error"
    },
    {
      "inputs": [
        {
          "internalType": "address",
          "name": "spender",
          "type": "address"
        }
      ],
      "name": "ERC20InvalidSpender",
      "type": "error"
    },
    {
      "inputs": [
        {
          "internalType": "address",
          "name": "owner",
          "type": "address"
        }
      ],
      "name": "OwnableInvalidOwner",
      "type": "error"
    },
    {
      "inputs": [
        {
          "internalType": "address",
          "name": "account",
          "type": "address"
        }
      ],
      "name": "OwnableUnauthorizedAccount",
      "type": "error"
    },
    {
      "anonymous": false,
      "inputs": [
        {
          "indexed": true,
          "internalType": "address",
          "name": "owner",
          "type": "address"
        },
        {
          "indexed": true,
          "internalType": "address",
          "name": "spender",
          "type": "address"
        },
        {
          "indexed": false,
          "internalType": "uint256",
          "name": "value",
          "type": "uint256"
        }
      ],
      "name": "Approval",
      "type": "event"
    },
    {
      "anonymous": false,
      "inputs": [
        {
          "indexed": false,
          "internalType": "uint256",
          "name": "oldFee",
          "type": "uint256"
        },
        {
          "indexed": false,
          "internalType": "uint256",
          "name": "newFee",
          "type": "uint256"
        }
      ],
      "name": "FeeChanged",
      "type": "event"
    },
    {
      "anonymous": false,
      "inputs": [
        {
          "indexed": true,
          "internalType": "address",
          "name": "from",
          "type": "address"
        },
        {
          "indexed": true,
          "internalType": "address",
          "name": "to",
          "type": "address"
        },
        {
          "indexed": false,
          "internalType": "uint256",
          "name": "amount",
          "type": "uint256"
        },
        {
          "indexed": false,
          "internalType": "uint256",
          "name": "fee",
          "type": "uint256"
        }
      ],
      "name": "FeeCharged",
      "type": "event"
    },
    {
      "anonymous": false,
      "inputs": [
        {
          "indexed": true,
          "internalType": "address",
          "name": "previousOwner",
          "type": "address"
        },
        {
          "indexed": true,
          "internalType": "address",
          "name": "newOwner",
          "type": "address"
        }
      ],
      "name": "OwnershipTransferred",
      "type": "event"
    },
    {
      "anonymous": false,
      "inputs": [
        {
          "indexed": true,
          "internalType": "address",
          "name": "from",
          "type": "address"
        },
        {
          "indexed": true,
          "internalType": "address",
          "name": "to",
          "type": "address"
        },
        {
          "indexed": false,
          "internalType": "uint256",
          "name": "value",
          "type": "uint256"
        }
      ],
      "name": "Transfer",
      "type": "event"
    },
    {
      "inputs": [],
      "name": "MAX_FEE",
      "outputs": [
        {
          "internalType": "uint256",
          "name": "",
          "type": "uint256"
        }
      ],
      "stateMutability": "view",
      "type": "function"
    },
    {
      "inputs": [
        {
          "internalType": "address",
          "name": "owner",
          "type": "address"
        },
        {
          "internalType": "address",
          "name": "spender",
          "type": "address"
        }
      ],
      "name": "allowance",
      "outputs": [
        {
          "internalType": "uint256",
          "name": "",
          "type": "uint256"
        }
      ],
      "stateMutability": "view",
      "type": "function"
    },
    {
      "inputs": [
        {
          "internalType": "address",
          "name": "spender",
          "type": "address"
        },
        {
          "internalType": "uint256",
          "name": "value",
          "type": "uint256"
        }
      ],
      "name": "approve",
      "outputs": [
        {
          "internalType": "bool",
          "name": "",
          "type": "bool"
        }
      ],
      "stateMutability": "nonpayable",
      "type": "function"
    },
    {
      "inputs": [
        {
          "internalType": "address",
          "name": "account",
          "type": "address"
        }
      ],
      "name": "balanceOf",
      "outputs": [
        {
          "internalType": "uint256",
          "name": "",
          "type": "uint256"
        }
      ],
      "stateMutability": "view",
      "type": "function"
    },
    {
      "inputs": [],
      "name": "decimals",
      "outputs": [
        {
          "internalType": "uint8",
          "name": "",
          "type": "uint8"
        }
      ],
      "stateMutability": "view",
      "type": "function"
    },
    {
      "inputs": [],
      "name": "feePercent",
      "outputs": [
        {
          "internalType": "uint256",
          "name": "",
          "type": "uint256"
        }
      ],
      "stateMutability": "view",
      "type": "function"
    },
    {
      "inputs": [],
      "name": "name",
      "outputs": [
        {
          "internalType": "string",
          "name": "",
          "type": "string"
        }
      ],
      "stateMutability": "view",
      "type": "function"
    },
    {
      "inputs": [],
      "name": "owner",
      "outputs": [
        {
          "internalType": "address",
          "name": "",
          "type": "address"
        }
      ],
      "stateMutability": "view",
      "type": "function"
    },
    {
      "inputs": [],
      "name": "renounceOwnership",
      "outputs": [],
      "stateMutability": "nonpayable",
      "type": "function"
    },
    {
      "inputs": [
        {
          "internalType": "uint256",
          "name": "newFeePercent",
          "type": "uint256"
        }
      ],
      "name": "setFeePercent",
      "outputs": [],
      "stateMutability": "nonpayable",
      "type": "function"
    },
    {
      "inputs": [],
      "name": "symbol",
      "outputs": [
        {
          "internalType": "string",
          "name": "",
          "type": "string"
        }
      ],
      "stateMutability": "view",
      "type": "function"
    },
    {
      "inputs": [],
      "name": "totalFeesCollected",
      "outputs": [
        {
          "internalType": "uint256",
          "name": "",
          "type": "uint256"
        }
      ],
      "stateMutability": "view",
      "type": "function"
    },
    {
      "inputs": [],
      "name": "totalSupply",
      "outputs": [
        {
          "internalType": "uint256",
          "name": "",
          "type": "uint256"
        }
      ],
      "stateMutability": "view",
      "type": "function"
    },
    {
      "inputs": [
        {
          "internalType": "address",
          "name": "to",
          "type": "address"
        },
        {
          "internalType": "uint256",
          "name": "amount",
          "type": "uint256"
        }
      ],
      "name": "transfer",
      "outputs": [
        {
          "internalType": "bool",
          "name": "",
          "type": "bool"
        }
      ],
      "stateMutability": "nonpayable",
      "type": "function"
    },
    {
      "inputs": [
        {
          "internalType": "address",
          "name": "from",
          "type": "address"
        },
        {
          "internalType": "address",
          "name": "to",
          "type": "address"
        },
        {
          "internalType": "uint256",
          "name": "amount",
          "type": "uint256"
        }
      ],
      "name": "transferFrom",
      "outputs": [
        {
          "internalType": "bool",
          "name": "",
          "type": "bool"
        }
      ],
      "stateMutability": "nonpayable",
      "type": "function"
    },
    {
      "inputs": [
        {
          "internalType": "address",
          "name": "newOwner",
          "type": "address"
        }
      ],
      "name": "transferOwnership",
      "outputs": [],
      "stateMutability": "nonpayable",
      "type": "function"
    },
    {
      "inputs": [],
      "name": "withdrawFees",
      "outputs": [],
      "stateMutability": "nonpayable",
      "type": "function"
    }
  ],
  "bytecode": "0x6080604052600a6006553480156200001657600080fd5b50604051620020fb380380620020fb83398181016040528101906200003c919062000532565b336040518060400160405280600881526020017f466565546f6b656e0000000000000000000000000000000000000000000000008152506040518060400160405280600381526020017f46454500000000000000000000000000000000000000000000000000000000008152508160039081620000ba9190620007d4565b508060049081620000cc9190620007d4565b505050600073ffffffffffffffffffffffffffffffffffffffff168173ffffffffffffffffffffffffffffffffffffffff1603620001445760006040517f1e4fbdf70000000000000000000000000000000000000000000000000000000081526004016200013b919062000900565b60405180910390fd5b62000155816200016f60201b60201c565b506200016833826200023560201b60201c565b50620009f2565b6000600560009054906101000a900473ffffffffffffffffffffffffffffffffffffffff16905081600560006101000a81548173ffffffffffffffffffffffffffffffffffffffff021916908373ffffffffffffffffffffffffffffffffffffffff1602179055508173ffffffffffffffffffffffffffffffffffffffff168173ffffffffffffffffffffffffffffffffffffffff167f8be0079c531659141344cd1fd0a4f28419497f9722a3daafe3b4186f6b6457e060405160405180910390a35050565b600073ffffffffffffffffffffffffffffffffffffffff168273ffffffffffffffffffffffffffffffffffffffff1603620002aa5760006040517fec442f05000000000000000000000000000000000000000000000000000000008152600401620002a1919062000900565b60405180910390fd5b620002be60008383620002c260201b60201c565b5050565b600073ffffffffffffffffffffffffffffffffffffffff168373ffffffffffffffffffffffffffffffffffffffff1603620003185780600260008282546200030b91906200094c565b92505081905550620003ee565b60008060008573ffffffffffffffffffffffffffffffffffffffff1673ffffffffffffffffffffffffffffffffffffffff16815260200190815260200160002054905081811015620003a7578381836040517fe450d38c0000000000000000000000000000000000000000000000000000000081526004016200039e9392919062000998565b60405180910390fd5b8181036000808673ffffffffffffffffffffffffffffffffffffffff1673ffffffffffffffffffffffffffffffffffffffff16815260200190815260200160002081905550505b600073ffffffffffffffffffffffffffffffffffffffff168273ffffffffffffffffffffffffffffffffffffffff160362000439578060026000828254039250508190555062000486565b806000808473ffffffffffffffffffffffffffffffffffffffff1673ffffffffffffffffffffffffffffffffffffffff168152602001908152602001600020600082825401925050819055505b8173ffffffffffffffffffffffffffffffffffffffff168373ffffffffffffffffffffffffffffffffffffffff167fddf252ad1be2c89b69c2b068fc378daa952ba7f163c4a11628f55a4df523b3ef83604051620004e59190620009d5565b60405180910390a3505050565b600080fd5b6000819050919050565b6200050c81620004f7565b81146200051857600080fd5b50565b6000815190506200052c8162000501565b92915050565b6000602082840312156200054b576200054a620004f2565b5b60006200055b848285016200051b565b91505092915050565b600081519050919050565b7f4e487b7100000000000000000000000000000000000000000000000000000000600052604160045260246000fd5b7f4e487b7100000000000000000000000000000000000000000000000000000000600052602260045260246000fd5b60006002820490506001821680620005e657607f821691505b602082108103620005fc57620005fb6200059e565b5b50919050565b60008190508160005260206000209050919050565b60006020601f8301049050919050565b600082821b905092915050565b600060088302620006667fffffffffffffffffffffffffffffffffffffffffffffffffffffffffffffffff8262000627565b62000672868362000627565b95508019841693508086168417925050509392505050565b6000819050919050565b6000620006b5620006af620006a984620004f7565b6200068a565b620004f7565b9050919050565b6000819050919050565b620006d18362000694565b620006e9620006e082620006bc565b84845462000634565b825550505050565b600090565b62000700620006f1565b6200070d818484620006c6565b505050565b5b81811015620007355762000729600082620006f6565b60018101905062000713565b5050565b601f82111562000784576200074e8162000602565b620007598462000617565b8101602085101562000769578190505b62000781620007788562000617565b83018262000712565b50505b505050565b600082821c905092915050565b6000620007a96000198460080262000789565b1980831691505092915050565b6000620007c4838362000796565b9150826002028217905092915050565b620007df8262000564565b67ffffffffffffffff811115620007fb57620007fa6200056f565b5b620008078254620005cd565b6200081482828562000739565b600060209050601f8311600181146200084c576000841562000837578287015190505b620008438582620007b6565b865550620008b3565b601f1984166200085c8662000602565b60005b8281101562000886578489015182556001820191506020850194506020810190506200085f565b86831015620008a65784890151620008a2601f89168262000796565b8355505b6001600288020188555050505b505050505050565b600073ffffffffffffffffffffffffffffffffffffffff82169050919050565b6000620008e882620008bb565b9050919050565b620008fa81620008db565b82525050565b6000602082019050620009176000830184620008ef565b92915050565b7f4e487b7100000000000000000000000000000000000000000000000000000000600052601160045260246000fd5b60006200095982620004f7565b91506200096683620004f7565b92508282019050808211156200098157620009806200091d565b5b92915050565b6200099281620004f7565b82525050565b6000606082019050620009af6000830186620008ef565b620009be602083018562000987565b620009cd604083018462000987565b949350505050565b6000602082019050620009ec600083018462000987565b92915050565b6116f98062000a026000396000f3fe608060405234801561001057600080fd5b506004361061010b5760003560e01c8063715018a6116100a257806395d89b411161007157806395d89b4114610284578063a9059cbb146102a2578063bc063e1a146102d2578063dd62ed3e146102f0578063f2fde38b146103205761010b565b8063715018a6146102225780637ce3489b1461022c5780637fd6f15c146102485780638da5cb5b146102665761010b565b8063313ce567116100de578063313ce567146101ac578063476343ee146101ca57806360c6d8ae146101d457806370a08231146101f25761010b565b806306fdde0314610110578063095ea7b31461012e57806318160ddd1461015e57806323b872dd1461017c575b600080fd5b61011861033c565b6040516101259190611091565b60405180910390f35b6101486004803603810190610143919061114c565b6103ce565b60405161015591906111a7565b60405180910390f35b6101666103f1565b60405161017391906111d1565b60405180910390f35b610196600480360381019061019191906111ec565b6103fb565b6040516101a391906111a7565b60405180910390f35b6101b4610423565b6040516101c1919061125b565b60405180910390f35b6101d261042c565b005b6101dc61046c565b6040516101e991906111d1565b60405180910390f35b61020c60048036038101906102079190611276565b610476565b60405161021991906111d1565b60405180910390f35b61022a6104be565b005b610246600480360381019061024191906112a3565b6104d2565b005b610250610569565b60405161025d91906111d1565b60405180910390f35b61026e610573565b60405161027b91906112df565b60405180910390f35b61028c61059d565b6040516102999190611091565b60405180910390f35b6102bc60048036038101906102b7919061114c565b61062f565b6040516102c991906111a7565b60405180910390f35b6102da61064b565b6040516102e791906111d1565b60405180910390f35b61030a600480360381019061030591906112fa565b610650565b60405161031791906111d1565b60405180910390f35b61033a60048036038101906103359190611276565b6106d7565b005b60606003805461034b90611369565b80601f016020809104026020016040519081016040528092919081815260200182805461037790611369565b80156103c45780601f10610399576101008083540402835291602001916103c4565b820191906000526020600020905b8154815290600101906020018083116103a757829003601f168201915b5050505050905090565b6000806103d961075d565b90506103e6818585610765565b600191505092915050565b6000600254905090565b600061040f8461040961075d565b84610777565b61041a84848461080c565b90509392505050565b60006012905090565b6104346109c4565b6000610446610441610573565b610476565b9050610461610453610573565b61045b61075d565b83610a4b565b600060078190555050565b6000600754905090565b60008060008373ffffffffffffffffffffffffffffffffffffffff1673ffffffffffffffffffffffffffffffffffffffff168152602001908152602001600020549050919050565b6104c66109c4565b6104d06000610b3f565b565b6104da6109c4565b606481111561051e576040517f08c379a0000000000000000000000000000000000000000000000000000000008152600401610515906113e6565b60405180910390fd5b60006006549050816006819055507f5fc463da23c1b063e66f9e352006a7fbe8db7223c455dc429e881a2dfe2f94f1818360405161055d929190611406565b60405180910390a15050565b6000600654905090565b6000600560009054906101000a900473ffffffffffffffffffffffffffffffffffffffff16905090565b6060600480546105ac90611369565b80601f01602080910402602001604051908101604052809291908181526020018280546105d890611369565b80156106255780601f106105fa57610100808354040283529160200191610625565b820191906000526020600020905b81548152906001019060200180831161060857829003601f168201915b5050505050905090565b600061064361063c61075d565b848461080c565b905092915050565b606481565b6000600160008473ffffffffffffffffffffffffffffffffffffffff1673ffffffffffffffffffffffffffffffffffffffff16815260200190815260200160002060008373ffffffffffffffffffffffffffffffffffffffff1673ffffffffffffffffffffffffffffffffffffffff16815260200190815260200160002054905092915050565b6106df6109c4565b600073ffffffffffffffffffffffffffffffffffffffff168173ffffffffffffffffffffffffffffffffffffffff16036107515760006040517f1e4fbdf700000000000000000000000000000000000000000000000000000000815260040161074891906112df565b60405180910390fd5b61075a81610b3f565b50565b600033905090565b6107728383836001610c05565b505050565b60006107838484610650565b90507fffffffffffffffffffffffffffffffffffffffffffffffffffffffffffffffff81101561080657818110156107f6578281836040517ffb8f41b20000000000000000000000000000000000000000000000000000000081526004016107ed9392919061142f565b60405180910390fd5b61080584848484036000610c05565b5b50505050565b60008073ffffffffffffffffffffffffffffffffffffffff168473ffffffffffffffffffffffffffffffffffffffff160361087c576040517f08c379a0000000000000000000000000000000000000000000000000000000008152600401610873906114d8565b60405180910390fd5b600073ffffffffffffffffffffffffffffffffffffffff168373ffffffffffffffffffffffffffffffffffffffff16036108eb576040517f08c379a00000000000000000000000000000000000000000000000000000000081526004016108e29061156a565b60405180910390fd5b6000612710600654846108fe91906115b9565b610908919061162a565b905060008184610918919061165b565b905061092c86610926610573565b84610a4b565b816007600082825461093e919061168f565b92505081905550610950868683610a4b565b8473ffffffffffffffffffffffffffffffffffffffff168673ffffffffffffffffffffffffffffffffffffffff167f2a2899ae8177fb54d81544d727d24141bf8fd23e78e721fe56cda337d397044b86856040516109af929190611406565b60405180910390a36001925050509392505050565b6109cc61075d565b73ffffffffffffffffffffffffffffffffffffffff166109ea610573565b73ffffffffffffffffffffffffffffffffffffffff1614610a4957610a0d61075d565b6040517f118cdaa7000000000000000000000000000000000000000000000000000000008152600401610a4091906112df565b60405180910390fd5b565b600073ffffffffffffffffffffffffffffffffffffffff168373ffffffffffffffffffffffffffffffffffffffff1603610abd5760006040517f96c6fd1e000000000000000000000000000000000000000000000000000000008152600401610ab491906112df565b60405180910390fd5b600073ffffffffffffffffffffffffffffffffffffffff168273ffffffffffffffffffffffffffffffffffffffff1603610b2f5760006040517fec442f05000000000000000000000000000000000000000000000000000000008152600401610b2691906112df565b60405180910390fd5b610b3a838383610ddc565b505050565b6000600560009054906101000a900473ffffffffffffffffffffffffffffffffffffffff16905081600560006101000a81548173ffffffffffffffffffffffffffffffffffffffff021916908373ffffffffffffffffffffffffffffffffffffffff1602179055508173ffffffffffffffffffffffffffffffffffffffff168173ffffffffffffffffffffffffffffffffffffffff167f8be0079c531659141344cd1fd0a4f28419497f9722a3daafe3b4186f6b6457e060405160405180910390a35050565b600073ffffffffffffffffffffffffffffffffffffffff168473ffffffffffffffffffffffffffffffffffffffff1603610c775760006040517fe602df05000000000000000000000000000000000000000000000000000000008152600401610c6e91906112df565b60405180910390fd5b600073ffffffffffffffffffffffffffffffffffffffff168373ffffffffffffffffffffffffffffffffffffffff1603610ce95760006040517f94280d62000000000000000000000000000000000000000000000000000000008152600401610ce091906112df565b60405180910390fd5b81600160008673ffffffffffffffffffffffffffffffffffffffff1673ffffffffffffffffffffffffffffffffffffffff16815260200190815260200160002060008573ffffffffffffffffffffffffffffffffffffffff1673ffffffffffffffffffffffffffffffffffffffff168152602001908152602001600020819055508015610dd6578273ffffffffffffffffffffffffffffffffffffffff168473ffffffffffffffffffffffffffffffffffffffff167f8c5be1e5ebec7d5bd14f71427d1e84f3dd0314c0f7b2291e5b200ac8c7c3b92584604051610dcd91906111d1565b60405180910390a35b50505050565b600073ffffffffffffffffffffffffffffffffffffffff168373ffffffffffffffffffffffffffffffffffffffff1603610e2e578060026000828254610e22919061168f565b92505081905550610f01565b60008060008573ffffffffffffffffffffffffffffffffffffffff1673ffffffffffffffffffffffffffffffffffffffff16815260200190815260200160002054905081811015610eba578381836040517fe450d38c000000000000000000000000000000000000000000000000000000008152600401610eb19392919061142f565b60405180910390fd5b8181036000808673ffffffffffffffffffffffffffffffffffffffff1673ffffffffffffffffffffffffffffffffffffffff16815260200190815260200160002081905550505b600073ffffffffffffffffffffffffffffffffffffffff168273ffffffffffffffffffffffffffffffffffffffff1603610f4a5780600260008282540392505081905550610f97565b806000808473ffffffffffffffffffffffffffffffffffffffff1673ffffffffffffffffffffffffffffffffffffffff168152602001908152602001600020600082825401925050819055505b8173ffffffffffffffffffffffffffffffffffffffff168373ffffffffffffffffffffffffffffffffffffffff167fddf252ad1be2c89b69c2b068fc378daa952ba7f163c4a11628f55a4df523b3ef83604051610ff491906111d1565b60405180910390a3505050565b600081519050919050565b600082825260208201905092915050565b60005b8381101561103b578082015181840152602081019050611020565b60008484015250505050565b6000601f19601f8301169050919050565b600061106382611001565b61106d818561100c565b935061107d81856020860161101d565b61108681611047565b840191505092915050565b600060208201905081810360008301526110ab8184611058565b905092915050565b600080fd5b600073ffffffffffffffffffffffffffffffffffffffff82169050919050565b60006110e3826110b8565b9050919050565b6110f3816110d8565b81146110fe57600080fd5b50565b600081359050611110816110ea565b92915050565b6000819050919050565b61112981611116565b811461113457600080fd5b50565b60008135905061114681611120565b92915050565b60008060408385031215611163576111626110b3565b5b600061117185828601611101565b925050602061118285828601611137565b9150509250929050565b60008115159050919050565b6111a18161118c565b82525050565b60006020820190506111bc6000830184611198565b92915050565b6111cb81611116565b82525050565b60006020820190506111e660008301846111c2565b92915050565b600080600060608486031215611205576112046110b3565b5b600061121386828701611101565b935050602061122486828701611101565b925050604061123586828701611137565b9150509250925092565b600060ff82169050919050565b6112558161123f565b82525050565b6000602082019050611270600083018461124c565b92915050565b60006020828403121561128c5761128b6110b3565b5b600061129a84828501611101565b91505092915050565b6000602082840312156112b9576112b86110b3565b5b60006112c784828501611137565b91505092915050565b6112d9816110d8565b82525050565b60006020820190506112f460008301846112d0565b92915050565b60008060408385031215611311576113106110b3565b5b600061131f85828601611101565b925050602061133085828601611101565b9150509250929050565b7f4e487b7100000000000000000000000000000000000000000000000000000000600052602260045260246000fd5b6000600282049050600182168061138157607f821691505b6020821081036113945761139361133a565b5b50919050565b7f466565546f6b656e3a2066656520746f6f206869676800000000000000000000600082015250565b60006113d060168361100c565b91506113db8261139a565b602082019050919050565b600060208201905081810360008301526113ff816113c3565b9050919050565b600060408201905061141b60008301856111c2565b61142860208301846111c2565b9392505050565b600060608201905061144460008301866112d0565b61145160208301856111c2565b61145e60408301846111c2565b949350505050565b7f45524332303a207472616e736665722066726f6d20746865207a65726f20616460008201527f6472657373000000000000000000000000000000000000000000000000000000602082015250565b60006114c260258361100c565b91506114cd82611466565b604082019050919050565b600060208201905081810360008301526114f1816114b5565b9050919050565b7f45524332303a207472616e7366657220746f20746865207a65726f206164647260008201527f6573730000000000000000000000000000000000000000000000000000000000602082015250565b600061155460238361100c565b915061155f826114f8565b604082019050919050565b6000602082019050818103600083015261158381611547565b9050919050565b7f4e487b7100000000000000000000000000000000000000000000000000000000600052601160045260246000fd5b60006115c482611116565b91506115cf83611116565b92508282026115dd81611116565b915082820484148315176115f4576115f361158a565b5b5092915050565b7f4e487b7100000000000000000000000000000000000000000000000000000000600052601260045260246000fd5b600061163582611116565b915061164083611116565b9250826116505761164f6115fb565b5b828204905092915050565b600061166682611116565b915061167183611116565b92508282039050818111156116895761168861158a565b5b92915050565b600061169a82611116565b91506116a583611116565b92508282019050808211156116bd576116bc61158a565b5b9291505056fea2646970667358221220ebaf9d57a54a326dc2eb8c2f4ac8704975f35b4b4324b711929a5023d3ba946164736f6c63430008140033",
  "linkReferences": {},
  "deployedLinkReferences": {}
}